{
  "_format": "hh-sol-artifact-1",
  "contractName": "Inventory",
  "sourceName": "contracts/Inventory.sol",
  "abi": [
    {
      "inputs": [],
      "stateMutability": "nonpayable",
      "type": "constructor"
    },
    {
      "anonymous": false,
      "inputs": [
        {
          "indexed": true,
          "internalType": "address",
          "name": "previousOwner",
          "type": "address"
        },
        {
          "indexed": true,
          "internalType": "address",
          "name": "newOwner",
          "type": "address"
        }
      ],
      "name": "OwnershipTransferred",
      "type": "event"
    },
    {
      "anonymous": false,
      "inputs": [
        {
          "indexed": false,
          "internalType": "uint256",
          "name": "productId",
          "type": "uint256"
        }
      ],
      "name": "productChanged",
      "type": "event"
    },
    {
      "inputs": [
        {
          "internalType": "string",
          "name": "_externalId",
          "type": "string"
        },
        {
          "internalType": "string",
          "name": "_name",
          "type": "string"
        },
        {
          "internalType": "uint256",
          "name": "_qty",
          "type": "uint256"
        },
        {
          "internalType": "string",
          "name": "_description",
          "type": "string"
        },
        {
          "internalType": "string",
          "name": "_location",
          "type": "string"
        }
      ],
      "name": "addProduct",
      "outputs": [
        {
          "internalType": "bool",
          "name": "success",
          "type": "bool"
        }
      ],
      "stateMutability": "nonpayable",
      "type": "function"
    },
    {
      "inputs": [
        {
          "internalType": "uint256",
          "name": "_id",
          "type": "uint256"
        },
        {
          "internalType": "uint256",
          "name": "_changeAmt",
          "type": "uint256"
        }
      ],
      "name": "addQty",
      "outputs": [
        {
          "internalType": "bool",
          "name": "",
          "type": "bool"
        }
      ],
      "stateMutability": "nonpayable",
      "type": "function"
    },
    {
      "inputs": [
        {
          "internalType": "uint256",
          "name": "_id",
          "type": "uint256"
        }
      ],
      "name": "deleteProduct",
      "outputs": [
        {
          "internalType": "bool",
          "name": "success",
          "type": "bool"
        }
      ],
      "stateMutability": "nonpayable",
      "type": "function"
    },
    {
      "inputs": [
        {
          "internalType": "uint256",
          "name": "_id",
          "type": "uint256"
        }
      ],
      "name": "disableProduct",
      "outputs": [
        {
          "internalType": "bool",
          "name": "success",
          "type": "bool"
        }
      ],
      "stateMutability": "nonpayable",
      "type": "function"
    },
    {
      "inputs": [
        {
          "internalType": "uint256",
          "name": "_id",
          "type": "uint256"
        }
      ],
      "name": "getDescription",
      "outputs": [
        {
          "internalType": "string",
          "name": "",
          "type": "string"
        }
      ],
      "stateMutability": "view",
      "type": "function"
    },
    {
      "inputs": [
        {
          "internalType": "string",
          "name": "_externalId",
          "type": "string"
        }
      ],
      "name": "getId",
      "outputs": [
        {
          "internalType": "uint256",
          "name": "",
          "type": "uint256"
        }
      ],
      "stateMutability": "view",
      "type": "function"
    },
    {
      "inputs": [
        {
          "internalType": "uint256",
          "name": "_id",
          "type": "uint256"
        }
      ],
      "name": "getLocation",
      "outputs": [
        {
          "internalType": "string",
          "name": "",
          "type": "string"
        }
      ],
      "stateMutability": "view",
      "type": "function"
    },
    {
      "inputs": [
        {
          "internalType": "uint256",
          "name": "_id",
          "type": "uint256"
        }
      ],
      "name": "getName",
      "outputs": [
        {
          "internalType": "string",
          "name": "",
          "type": "string"
        }
      ],
      "stateMutability": "view",
      "type": "function"
    },
    {
      "inputs": [
        {
          "internalType": "uint256",
          "name": "_id",
          "type": "uint256"
        }
      ],
      "name": "getProductById",
      "outputs": [
        {
          "internalType": "string",
          "name": "externalId",
          "type": "string"
        },
        {
          "internalType": "string",
          "name": "name",
          "type": "string"
        },
        {
          "internalType": "uint256",
          "name": "qty",
          "type": "uint256"
        },
        {
          "internalType": "string",
          "name": "location",
          "type": "string"
        },
        {
          "internalType": "string",
          "name": "description",
          "type": "string"
        }
      ],
      "stateMutability": "view",
      "type": "function"
    },
    {
      "inputs": [],
      "name": "getProductCount",
      "outputs": [
        {
          "internalType": "uint256",
          "name": "count",
          "type": "uint256"
        }
      ],
      "stateMutability": "view",
      "type": "function"
    },
    {
      "inputs": [
        {
          "internalType": "uint256",
          "name": "_id",
          "type": "uint256"
        }
      ],
      "name": "getQuantity",
      "outputs": [
        {
          "internalType": "uint256",
          "name": "",
          "type": "uint256"
        }
      ],
      "stateMutability": "view",
      "type": "function"
    },
    {
      "inputs": [],
      "name": "owner",
      "outputs": [
        {
          "internalType": "address",
          "name": "",
          "type": "address"
        }
      ],
      "stateMutability": "view",
      "type": "function"
    },
    {
      "inputs": [],
      "name": "renounceOwnership",
      "outputs": [],
      "stateMutability": "nonpayable",
      "type": "function"
    },
    {
      "inputs": [
        {
          "internalType": "uint256",
          "name": "_id",
          "type": "uint256"
        },
        {
          "internalType": "string",
          "name": "_location",
          "type": "string"
        }
      ],
      "name": "setLocation",
      "outputs": [
        {
          "internalType": "bool",
          "name": "success",
          "type": "bool"
        }
      ],
      "stateMutability": "view",
      "type": "function"
    },
    {
      "inputs": [
        {
          "internalType": "uint256",
          "name": "_id",
          "type": "uint256"
        },
        {
          "internalType": "uint256",
          "name": "_changeAmt",
          "type": "uint256"
        }
      ],
      "name": "subQty",
      "outputs": [
        {
          "internalType": "bool",
          "name": "",
          "type": "bool"
        }
      ],
      "stateMutability": "nonpayable",
      "type": "function"
    },
    {
      "inputs": [
        {
          "internalType": "address",
          "name": "newOwner",
          "type": "address"
        }
      ],
      "name": "transferOwnership",
      "outputs": [],
      "stateMutability": "nonpayable",
      "type": "function"
    },
    {
      "inputs": [
        {
          "internalType": "uint256",
          "name": "_id",
          "type": "uint256"
        },
        {
          "internalType": "string",
          "name": "_description",
          "type": "string"
        }
      ],
      "name": "updateDescription",
      "outputs": [
        {
          "internalType": "bool",
          "name": "",
          "type": "bool"
        }
      ],
      "stateMutability": "nonpayable",
      "type": "function"
    },
    {
      "inputs": [
        {
          "internalType": "uint256",
          "name": "_id",
          "type": "uint256"
        },
        {
          "internalType": "string",
          "name": "_externalId",
          "type": "string"
        }
      ],
      "name": "updateExternalId",
      "outputs": [
        {
          "internalType": "bool",
          "name": "",
          "type": "bool"
        }
      ],
      "stateMutability": "nonpayable",
      "type": "function"
    },
    {
      "inputs": [
        {
          "internalType": "uint256",
          "name": "_id",
          "type": "uint256"
        },
        {
          "internalType": "string",
          "name": "_location",
          "type": "string"
        }
      ],
      "name": "updateLocation",
      "outputs": [
        {
          "internalType": "bool",
          "name": "",
          "type": "bool"
        }
      ],
      "stateMutability": "nonpayable",
      "type": "function"
    },
    {
      "inputs": [
        {
          "internalType": "uint256",
          "name": "_id",
          "type": "uint256"
        },
        {
          "internalType": "string",
          "name": "_name",
          "type": "string"
        }
      ],
      "name": "updateName",
      "outputs": [
        {
          "internalType": "bool",
          "name": "",
          "type": "bool"
        }
      ],
      "stateMutability": "nonpayable",
      "type": "function"
    }
  ],
  "bytecode": "0x60806040523480156200001157600080fd5b5062000032620000266200004060201b60201c565b6200004860201b60201c565b60006003819055506200010c565b600033905090565b60008060009054906101000a900473ffffffffffffffffffffffffffffffffffffffff169050816000806101000a81548173ffffffffffffffffffffffffffffffffffffffff021916908373ffffffffffffffffffffffffffffffffffffffff1602179055508173ffffffffffffffffffffffffffffffffffffffff168173ffffffffffffffffffffffffffffffffffffffff167f8be0079c531659141344cd1fd0a4f28419497f9722a3daafe3b4186f6b6457e060405160405180910390a35050565b61280e806200011c6000396000f3fe608060405234801561001057600080fd5b506004361061012c5760003560e01c8063715018a6116100ad578063c00ab38011610071578063c00ab380146103bb578063e44d8456146103eb578063ed90c7b71461041b578063ef6eafb51461044b578063f2fde38b1461047b5761012c565b8063715018a6146103035780637f7b13931461030d5780638da5cb5b1461033d578063b9db1c981461035b578063bee51f3b1461038b5761012c565b80634ec0c9e9116100f45780634ec0c9e91461021357806353e76f2c1461024357806354e4b5c2146102735780635ebd9ded146102a35780636b8ff574146102d35761012c565b80631337638a1461013157806314dee4b3146101615780633f70c2b4146101915780634925ec55146101c55780634a348da9146101f5575b600080fd5b61014b60048036038101906101469190611e33565b610497565b60405161015891906121e0565b60405180910390f35b61017b60048036038101906101769190611f44565b6108ba565b60405161018891906121e0565b60405180910390f35b6101ab60048036038101906101a69190611f1b565b61099e565b6040516101bc95949392919061221d565b60405180910390f35b6101df60048036038101906101da9190611f1b565b610ddd565b6040516101ec91906121fb565b60405180910390f35b6101fd610eba565b60405161020a919061236c565b60405180910390f35b61022d60048036038101906102289190611f44565b610f43565b60405161023a91906121e0565b60405180910390f35b61025d60048036038101906102589190611f44565b611027565b60405161026a91906121e0565b60405180910390f35b61028d60048036038101906102889190611f1b565b61108f565b60405161029a91906121e0565b60405180910390f35b6102bd60048036038101906102b89190611f1b565b61117a565b6040516102ca919061236c565b60405180910390f35b6102ed60048036038101906102e89190611f1b565b61124b565b6040516102fa91906121fb565b60405180910390f35b61030b6113a4565b005b61032760048036038101906103229190611f1b565b61142c565b60405161033491906121fb565b60405180910390f35b610345611585565b60405161035291906121c5565b60405180910390f35b61037560048036038101906103709190611ff0565b6115ae565b60405161038291906121e0565b60405180910390f35b6103a560048036038101906103a09190611dee565b611698565b6040516103b2919061236c565b60405180910390f35b6103d560048036038101906103d09190611ff0565b61173f565b6040516103e291906121e0565b60405180910390f35b61040560048036038101906104009190611f44565b611846565b60405161041291906121e0565b60405180910390f35b61043560048036038101906104309190611f1b565b6118ae565b60405161044291906121e0565b60405180910390f35b61046560048036038101906104609190611f9c565b611935565b60405161047291906121e0565b60405180910390f35b61049560048036038101906104909190611dc5565b6119bd565b005b60006104a1611ab5565b73ffffffffffffffffffffffffffffffffffffffff166104bf611585565b73ffffffffffffffffffffffffffffffffffffffff1614610515576040517f08c379a000000000000000000000000000000000000000000000000000000000815260040161050c906122ec565b60405180910390fd5b600088889050141561055c576040517f08c379a00000000000000000000000000000000000000000000000000000000081526004016105539061228c565b60405180910390fd5b60008610156105a0576040517f08c379a00000000000000000000000000000000000000000000000000000000081526004016105979061234c565b60405180910390fd5b60008585905014156105e7576040517f08c379a00000000000000000000000000000000000000000000000000000000081526004016105de906122cc565b60405180910390fd5b600083839050141561062e576040517f08c379a00000000000000000000000000000000000000000000000000000000081526004016106259061232c565b60405180910390fd5b610636611b81565b60035460018c8c60405161064b9291906121ac565b9081526020016040518091039020819055508a8a8080601f016020809104026020016040519081016040528093929190818152602001838380828437600081840152601f19601f82011690508083019250505050505050816000018190525060035481602001818152505088888080601f016020809104026020016040519081016040528093929190818152602001838380828437600081840152601f19601f82011690508083019250505050505050816060018190525085858080601f016020809104026020016040519081016040528093929190818152602001838380828437600081840152601f19601f820116905080830192505050505050508160a001819052508681604001818152505083838080601f016020809104026020016040519081016040528093929190818152602001838380828437600081840152601f19601f82011690508083019250505050505050816080018190525060018160c001901515908115158152505060028190806001815401808255809150506001900390600052602060002090600702016000909190919091506000820151816000019080519060200190610800929190611bc0565b5060208201518160010155604082015181600201556060820151816003019080519060200190610831929190611bc0565b50608082015181600401908051906020019061084e929190611bc0565b5060a082015181600501908051906020019061086b929190611bc0565b5060c08201518160060160006101000a81548160ff02191690831515021790555050506001600360008282546108a19190612404565b9250508190555060019150509998505050505050505050565b60006108c4611ab5565b73ffffffffffffffffffffffffffffffffffffffff166108e2611585565b73ffffffffffffffffffffffffffffffffffffffff1614610938576040517f08c379a000000000000000000000000000000000000000000000000000000000815260040161092f906122ec565b60405180910390fd5b828260028681548110610974577f4e487b7100000000000000000000000000000000000000000000000000000000600052603260045260246000fd5b90600052602060002090600702016005019190610992929190611c46565b50600190509392505050565b60608060006060806109ae611ab5565b73ffffffffffffffffffffffffffffffffffffffff166109cc611585565b73ffffffffffffffffffffffffffffffffffffffff1614610a22576040517f08c379a0000000000000000000000000000000000000000000000000000000008152600401610a19906122ec565b60405180910390fd5b60028681548110610a5c577f4e487b7100000000000000000000000000000000000000000000000000000000600052603260045260246000fd5b906000526020600020906007020160000160028781548110610aa7577f4e487b7100000000000000000000000000000000000000000000000000000000600052603260045260246000fd5b906000526020600020906007020160030160028881548110610af2577f4e487b7100000000000000000000000000000000000000000000000000000000600052603260045260246000fd5b90600052602060002090600702016002015460028981548110610b3e577f4e487b7100000000000000000000000000000000000000000000000000000000600052603260045260246000fd5b906000526020600020906007020160040160028a81548110610b89577f4e487b7100000000000000000000000000000000000000000000000000000000600052603260045260246000fd5b9060005260206000209060070201600501848054610ba690612518565b80601f0160208091040260200160405190810160405280929190818152602001828054610bd290612518565b8015610c1f5780601f10610bf457610100808354040283529160200191610c1f565b820191906000526020600020905b815481529060010190602001808311610c0257829003601f168201915b50505050509450838054610c3290612518565b80601f0160208091040260200160405190810160405280929190818152602001828054610c5e90612518565b8015610cab5780601f10610c8057610100808354040283529160200191610cab565b820191906000526020600020905b815481529060010190602001808311610c8e57829003601f168201915b50505050509350818054610cbe90612518565b80601f0160208091040260200160405190810160405280929190818152602001828054610cea90612518565b8015610d375780601f10610d0c57610100808354040283529160200191610d37565b820191906000526020600020905b815481529060010190602001808311610d1a57829003601f168201915b50505050509150808054610d4a90612518565b80601f0160208091040260200160405190810160405280929190818152602001828054610d7690612518565b8015610dc35780601f10610d9857610100808354040283529160200191610dc3565b820191906000526020600020905b815481529060010190602001808311610da657829003601f168201915b505050505090509450945094509450945091939590929450565b606060028281548110610e19577f4e487b7100000000000000000000000000000000000000000000000000000000600052603260045260246000fd5b90600052602060002090600702016005018054610e3590612518565b80601f0160208091040260200160405190810160405280929190818152602001828054610e6190612518565b8015610eae5780601f10610e8357610100808354040283529160200191610eae565b820191906000526020600020905b815481529060010190602001808311610e9157829003601f168201915b50505050509050919050565b6000610ec4611ab5565b73ffffffffffffffffffffffffffffffffffffffff16610ee2611585565b73ffffffffffffffffffffffffffffffffffffffff1614610f38576040517f08c379a0000000000000000000000000000000000000000000000000000000008152600401610f2f906122ec565b60405180910390fd5b600280549050905090565b6000610f4d611ab5565b73ffffffffffffffffffffffffffffffffffffffff16610f6b611585565b73ffffffffffffffffffffffffffffffffffffffff1614610fc1576040517f08c379a0000000000000000000000000000000000000000000000000000000008152600401610fb8906122ec565b60405180910390fd5b828260028681548110610ffd577f4e487b7100000000000000000000000000000000000000000000000000000000600052603260045260246000fd5b9060005260206000209060070201600401919061101b929190611c46565b50600190509392505050565b6000828260028681548110611065577f4e487b7100000000000000000000000000000000000000000000000000000000600052603260045260246000fd5b90600052602060002090600702016003019190611083929190611c46565b50600190509392505050565b6000611099611ab5565b73ffffffffffffffffffffffffffffffffffffffff166110b7611585565b73ffffffffffffffffffffffffffffffffffffffff161461110d576040517f08c379a0000000000000000000000000000000000000000000000000000000008152600401611104906122ec565b60405180910390fd5b600060028381548110611149577f4e487b7100000000000000000000000000000000000000000000000000000000600052603260045260246000fd5b906000526020600020906007020160060160006101000a81548160ff02191690831515021790555060019050919050565b6000611184611ab5565b73ffffffffffffffffffffffffffffffffffffffff166111a2611585565b73ffffffffffffffffffffffffffffffffffffffff16146111f8576040517f08c379a00000000000000000000000000000000000000000000000000000000081526004016111ef906122ec565b60405180910390fd5b60028281548110611232577f4e487b7100000000000000000000000000000000000000000000000000000000600052603260045260246000fd5b9060005260206000209060070201600201549050919050565b6060611255611ab5565b73ffffffffffffffffffffffffffffffffffffffff16611273611585565b73ffffffffffffffffffffffffffffffffffffffff16146112c9576040517f08c379a00000000000000000000000000000000000000000000000000000000081526004016112c0906122ec565b60405180910390fd5b60028281548110611303577f4e487b7100000000000000000000000000000000000000000000000000000000600052603260045260246000fd5b9060005260206000209060070201600301805461131f90612518565b80601f016020809104026020016040519081016040528092919081815260200182805461134b90612518565b80156113985780601f1061136d57610100808354040283529160200191611398565b820191906000526020600020905b81548152906001019060200180831161137b57829003601f168201915b50505050509050919050565b6113ac611ab5565b73ffffffffffffffffffffffffffffffffffffffff166113ca611585565b73ffffffffffffffffffffffffffffffffffffffff1614611420576040517f08c379a0000000000000000000000000000000000000000000000000000000008152600401611417906122ec565b60405180910390fd5b61142a6000611abd565b565b6060611436611ab5565b73ffffffffffffffffffffffffffffffffffffffff16611454611585565b73ffffffffffffffffffffffffffffffffffffffff16146114aa576040517f08c379a00000000000000000000000000000000000000000000000000000000081526004016114a1906122ec565b60405180910390fd5b600282815481106114e4577f4e487b7100000000000000000000000000000000000000000000000000000000600052603260045260246000fd5b9060005260206000209060070201600401805461150090612518565b80601f016020809104026020016040519081016040528092919081815260200182805461152c90612518565b80156115795780601f1061154e57610100808354040283529160200191611579565b820191906000526020600020905b81548152906001019060200180831161155c57829003601f168201915b50505050509050919050565b60008060009054906101000a900473ffffffffffffffffffffffffffffffffffffffff16905090565b60006115b8611ab5565b73ffffffffffffffffffffffffffffffffffffffff166115d6611585565b73ffffffffffffffffffffffffffffffffffffffff161461162c576040517f08c379a0000000000000000000000000000000000000000000000000000000008152600401611623906122ec565b60405180910390fd5b8160028481548110611667577f4e487b7100000000000000000000000000000000000000000000000000000000600052603260045260246000fd5b906000526020600020906007020160020160008282546116879190612404565b925050819055506001905092915050565b60006116a2611ab5565b73ffffffffffffffffffffffffffffffffffffffff166116c0611585565b73ffffffffffffffffffffffffffffffffffffffff1614611716576040517f08c379a000000000000000000000000000000000000000000000000000000000815260040161170d906122ec565b60405180910390fd5b600183836040516117289291906121ac565b908152602001604051809103902054905092915050565b600080826002858154811061177d577f4e487b7100000000000000000000000000000000000000000000000000000000600052603260045260246000fd5b906000526020600020906007020160020154611799919061245a565b10156117da576040517f08c379a00000000000000000000000000000000000000000000000000000000081526004016117d19061230c565b60405180910390fd5b8160028481548110611815577f4e487b7100000000000000000000000000000000000000000000000000000000600052603260045260246000fd5b90600052602060002090600702016002016000828254611835919061245a565b925050819055506001905092915050565b6000828260028681548110611884577f4e487b7100000000000000000000000000000000000000000000000000000000600052603260045260246000fd5b906000526020600020906007020160000191906118a2929190611c46565b50600190509392505050565b60006118b8611ab5565b73ffffffffffffffffffffffffffffffffffffffff166118d6611585565b73ffffffffffffffffffffffffffffffffffffffff161461192c576040517f08c379a0000000000000000000000000000000000000000000000000000000008152600401611923906122ec565b60405180910390fd5b60019050919050565b600061193f611ab5565b73ffffffffffffffffffffffffffffffffffffffff1661195d611585565b73ffffffffffffffffffffffffffffffffffffffff16146119b3576040517f08c379a00000000000000000000000000000000000000000000000000000000081526004016119aa906122ec565b60405180910390fd5b6001905092915050565b6119c5611ab5565b73ffffffffffffffffffffffffffffffffffffffff166119e3611585565b73ffffffffffffffffffffffffffffffffffffffff1614611a39576040517f08c379a0000000000000000000000000000000000000000000000000000000008152600401611a30906122ec565b60405180910390fd5b600073ffffffffffffffffffffffffffffffffffffffff168173ffffffffffffffffffffffffffffffffffffffff161415611aa9576040517f08c379a0000000000000000000000000000000000000000000000000000000008152600401611aa0906122ac565b60405180910390fd5b611ab281611abd565b50565b600033905090565b60008060009054906101000a900473ffffffffffffffffffffffffffffffffffffffff169050816000806101000a81548173ffffffffffffffffffffffffffffffffffffffff021916908373ffffffffffffffffffffffffffffffffffffffff1602179055508173ffffffffffffffffffffffffffffffffffffffff168173ffffffffffffffffffffffffffffffffffffffff167f8be0079c531659141344cd1fd0a4f28419497f9722a3daafe3b4186f6b6457e060405160405180910390a35050565b6040518060e001604052806060815260200160008152602001600081526020016060815260200160608152602001606081526020016000151581525090565b828054611bcc90612518565b90600052602060002090601f016020900481019282611bee5760008555611c35565b82601f10611c0757805160ff1916838001178555611c35565b82800160010185558215611c35579182015b82811115611c34578251825591602001919060010190611c19565b5b509050611c429190611ccc565b5090565b828054611c5290612518565b90600052602060002090601f016020900481019282611c745760008555611cbb565b82601f10611c8d57803560ff1916838001178555611cbb565b82800160010185558215611cbb579182015b82811115611cba578235825591602001919060010190611c9f565b5b509050611cc89190611ccc565b5090565b5b80821115611ce5576000816000905550600101611ccd565b5090565b6000611cfc611cf7846123ac565b612387565b905082815260208101848484011115611d1457600080fd5b611d1f8482856124d6565b509392505050565b600081359050611d36816127aa565b92915050565b60008083601f840112611d4e57600080fd5b8235905067ffffffffffffffff811115611d6757600080fd5b602083019150836001820283011115611d7f57600080fd5b9250929050565b600082601f830112611d9757600080fd5b8135611da7848260208601611ce9565b91505092915050565b600081359050611dbf816127c1565b92915050565b600060208284031215611dd757600080fd5b6000611de584828501611d27565b91505092915050565b60008060208385031215611e0157600080fd5b600083013567ffffffffffffffff811115611e1b57600080fd5b611e2785828601611d3c565b92509250509250929050565b600080600080600080600080600060a08a8c031215611e5157600080fd5b60008a013567ffffffffffffffff811115611e6b57600080fd5b611e778c828d01611d3c565b995099505060208a013567ffffffffffffffff811115611e9657600080fd5b611ea28c828d01611d3c565b97509750506040611eb58c828d01611db0565b95505060608a013567ffffffffffffffff811115611ed257600080fd5b611ede8c828d01611d3c565b945094505060808a013567ffffffffffffffff811115611efd57600080fd5b611f098c828d01611d3c565b92509250509295985092959850929598565b600060208284031215611f2d57600080fd5b6000611f3b84828501611db0565b91505092915050565b600080600060408486031215611f5957600080fd5b6000611f6786828701611db0565b935050602084013567ffffffffffffffff811115611f8457600080fd5b611f9086828701611d3c565b92509250509250925092565b60008060408385031215611faf57600080fd5b6000611fbd85828601611db0565b925050602083013567ffffffffffffffff811115611fda57600080fd5b611fe685828601611d86565b9150509250929050565b6000806040838503121561200357600080fd5b600061201185828601611db0565b925050602061202285828601611db0565b9150509250929050565b6120358161248e565b82525050565b612044816124a0565b82525050565b600061205683856123f9565b93506120638385846124d6565b82840190509392505050565b600061207a826123dd565b61208481856123e8565b93506120948185602086016124e5565b61209d81612608565b840191505092915050565b60006120b5601a836123e8565b91506120c082612619565b602082019050919050565b60006120d86026836123e8565b91506120e382612642565b604082019050919050565b60006120fb601b836123e8565b915061210682612691565b602082019050919050565b600061211e6020836123e8565b9150612129826126ba565b602082019050919050565b60006121416026836123e8565b915061214c826126e3565b604082019050919050565b60006121646018836123e8565b915061216f82612732565b602082019050919050565b60006121876024836123e8565b91506121928261275b565b604082019050919050565b6121a6816124cc565b82525050565b60006121b982848661204a565b91508190509392505050565b60006020820190506121da600083018461202c565b92915050565b60006020820190506121f5600083018461203b565b92915050565b60006020820190508181036000830152612215818461206f565b905092915050565b600060a0820190508181036000830152612237818861206f565b9050818103602083015261224b818761206f565b905061225a604083018661219d565b818103606083015261226c818561206f565b90508181036080830152612280818461206f565b90509695505050505050565b600060208201905081810360008301526122a5816120a8565b9050919050565b600060208201905081810360008301526122c5816120cb565b9050919050565b600060208201905081810360008301526122e5816120ee565b9050919050565b6000602082019050818103600083015261230581612111565b9050919050565b6000602082019050818103600083015261232581612134565b9050919050565b6000602082019050818103600083015261234581612157565b9050919050565b600060208201905081810360008301526123658161217a565b9050919050565b6000602082019050612381600083018461219d565b92915050565b60006123916123a2565b905061239d828261254a565b919050565b6000604051905090565b600067ffffffffffffffff8211156123c7576123c66125d9565b5b6123d082612608565b9050602081019050919050565b600081519050919050565b600082825260208201905092915050565b600081905092915050565b600061240f826124cc565b915061241a836124cc565b9250827fffffffffffffffffffffffffffffffffffffffffffffffffffffffffffffffff0382111561244f5761244e61257b565b5b828201905092915050565b6000612465826124cc565b9150612470836124cc565b9250828210156124835761248261257b565b5b828203905092915050565b6000612499826124ac565b9050919050565b60008115159050919050565b600073ffffffffffffffffffffffffffffffffffffffff82169050919050565b6000819050919050565b82818337600083830152505050565b60005b838110156125035780820151818401526020810190506124e8565b83811115612512576000848401525b50505050565b6000600282049050600182168061253057607f821691505b60208210811415612544576125436125aa565b5b50919050565b61255382612608565b810181811067ffffffffffffffff82111715612572576125716125d9565b5b80604052505050565b7f4e487b7100000000000000000000000000000000000000000000000000000000600052601160045260246000fd5b7f4e487b7100000000000000000000000000000000000000000000000000000000600052602260045260246000fd5b7f4e487b7100000000000000000000000000000000000000000000000000000000600052604160045260246000fd5b6000601f19601f8301169050919050565b7f506c6561736520656e7465722070726f64756374206e616d652e000000000000600082015250565b7f4f776e61626c653a206e6577206f776e657220697320746865207a65726f206160008201527f6464726573730000000000000000000000000000000000000000000000000000602082015250565b7f506c6561736520656e7465722061206465736372697074696f6e2e0000000000600082015250565b7f4f776e61626c653a2063616c6c6572206973206e6f7420746865206f776e6572600082015250565b7f63616e6e6f74207265647563652070726f64756374207175616e74697479206260008201527f656c6f7720300000000000000000000000000000000000000000000000000000602082015250565b7f506c6561736520656e7465722061206c6f636174696f6e2e0000000000000000600082015250565b7f5175616e74697479206e6f7420616c6c6f77656420746f206265206e6567617460008201527f6976652e00000000000000000000000000000000000000000000000000000000602082015250565b6127b38161248e565b81146127be57600080fd5b50565b6127ca816124cc565b81146127d557600080fd5b5056fea2646970667358221220343ef2713e68eb8756033f58e882e6f4f73eaabb4fd49de33198ac2d101de74b64736f6c63430008040033",
  "linkReferences": {},
  "deployedLinkReferences": {}
}